{
  "contractName": "Auction",
  "abi": [
    {
      "inputs": [],
      "payable": false,
      "stateMutability": "nonpayable",
      "type": "constructor"
    },
    {
      "constant": true,
      "inputs": [],
      "name": "beneficiary",
      "outputs": [
        {
          "internalType": "address payable",
          "name": "",
          "type": "address"
        }
      ],
      "payable": false,
      "stateMutability": "view",
      "type": "function"
    },
    {
      "constant": true,
      "inputs": [],
      "name": "highestBid",
      "outputs": [
        {
          "internalType": "uint256",
          "name": "",
          "type": "uint256"
        }
      ],
      "payable": false,
      "stateMutability": "view",
      "type": "function"
    },
    {
      "constant": true,
      "inputs": [],
      "name": "highestBidder",
      "outputs": [
        {
          "internalType": "address",
          "name": "",
          "type": "address"
        }
      ],
      "payable": false,
      "stateMutability": "view",
      "type": "function"
    },
    {
      "constant": false,
      "inputs": [],
      "name": "bid",
      "outputs": [],
      "payable": true,
      "stateMutability": "payable",
      "type": "function"
    },
    {
      "constant": false,
      "inputs": [],
      "name": "withdraw",
      "outputs": [
        {
          "internalType": "bool",
          "name": "",
          "type": "bool"
        }
      ],
      "payable": false,
      "stateMutability": "nonpayable",
      "type": "function"
    },
    {
      "constant": false,
      "inputs": [],
      "name": "auctionEnd",
      "outputs": [],
      "payable": false,
      "stateMutability": "nonpayable",
      "type": "function"
    }
  ],
  "bytecode": "0x608060405234801561001057600080fd5b506000600281905550336000806101000a81548173ffffffffffffffffffffffffffffffffffffffff021916908373ffffffffffffffffffffffffffffffffffffffff16021790555060008060146101000a81548160ff02191690831515021790555061048f806100826000396000f3fe6080604052600436106100555760003560e01c80631998aeef1461005a5780632a24f46c1461006457806338af3eed1461007b5780633ccfd60b146100d257806391f9015714610101578063d57bde7914610158575b600080fd5b610062610183565b005b34801561007057600080fd5b5061007961024f565b005b34801561008757600080fd5b5061009061033e565b604051808273ffffffffffffffffffffffffffffffffffffffff1673ffffffffffffffffffffffffffffffffffffffff16815260200191505060405180910390f35b3480156100de57600080fd5b506100e7610363565b604051808215151515815260200191505060405180910390f35b34801561010d57600080fd5b5061011661042e565b604051808273ffffffffffffffffffffffffffffffffffffffff1673ffffffffffffffffffffffffffffffffffffffff16815260200191505060405180910390f35b34801561016457600080fd5b5061016d610454565b6040518082815260200191505060405180910390f35b600254341161019157600080fd5b600060025490506000600160009054906101000a900473ffffffffffffffffffffffffffffffffffffffff1690503460028190555033600160006101000a81548173ffffffffffffffffffffffffffffffffffffffff021916908373ffffffffffffffffffffffffffffffffffffffff16021790555081600360008373ffffffffffffffffffffffffffffffffffffffff1673ffffffffffffffffffffffffffffffffffffffff168152602001908152602001600020819055505050565b6000809054906101000a900473ffffffffffffffffffffffffffffffffffffffff1673ffffffffffffffffffffffffffffffffffffffff163373ffffffffffffffffffffffffffffffffffffffff16146102a857600080fd5b60001515600060149054906101000a900460ff161515146102c857600080fd5b6001600060146101000a81548160ff0219169083151502179055506000809054906101000a900473ffffffffffffffffffffffffffffffffffffffff1673ffffffffffffffffffffffffffffffffffffffff166108fc6002549081150290604051600060405180830381858888f1935050505050565b6000809054906101000a900473ffffffffffffffffffffffffffffffffffffffff1681565b600080600360003373ffffffffffffffffffffffffffffffffffffffff1673ffffffffffffffffffffffffffffffffffffffff1681526020019081526020016000205490506000600360003373ffffffffffffffffffffffffffffffffffffffff1673ffffffffffffffffffffffffffffffffffffffff1681526020019081526020016000208190555060003373ffffffffffffffffffffffffffffffffffffffff166108fc839081150290604051600060405180830381858888f193505050509050809250505090565b600160009054906101000a900473ffffffffffffffffffffffffffffffffffffffff1681565b6002548156fea265627a7a72315820c3fb6421ac41988fc1e8c41f5f27d89bbaafd3a3ac7a77bfcf4a6fc3357e254364736f6c63430005100032",
  "source": "pragma solidity ^0.5.0;\n\ncontract Auction\n{\n    address payable public beneficiary;\n    bool private Auction_Terminated;\n    address public highestBidder;\n    uint public highestBid;\n\n    mapping(address => uint) pendingReturns;\n\n    constructor() public \n    {\n        highestBid = 0;\n        beneficiary = msg.sender;\n        Auction_Terminated = false;\n    }\n\n    function bid() public payable\n    {\n        require(msg.value > highestBid);\n        uint old_bid = highestBid;\n        address old_bidder = highestBidder;\n        highestBid = msg.value;\n        highestBidder = msg.sender;\n        pendingReturns[old_bidder] = old_bid;\n    }\n\n    function withdraw() public returns (bool)\n    {\n        uint amount = pendingReturns[msg.sender];\n        pendingReturns[msg.sender] = 0;\n        bool result = msg.sender.send(amount);\n        return result;\n    }\n\n    function auctionEnd() public\n    {\n        require(msg.sender == beneficiary);\n        require(Auction_Terminated == false);\n        Auction_Terminated = true;\n        beneficiary.send(highestBid);\n    }\n}",
  "sourcePath": "C:\\Users\\tummalanikhilesh\\Downloads\\Blockchain HW\\HW1 - Solution\\contracts\\Auction.sol",
  "compiler": {
    "name": "solc",
    "version": "0.5.16+commit.9c3226ce.Emscripten.clang"
  },
  "schemaVersion": "3.0.23",
  "updatedAt": "2020-02-25T02:54:59.667Z",
  "networkType": "ethereum",
  "devdoc": {
    "methods": {}
  },
  "userdoc": {
    "methods": {}
  }
}